{
  "address": "0x5FbDB2315678afecb367f032d93F642f64180aa3",
  "abi": [
    {
      "inputs": [],
      "name": "ZamaProtocolUnsupported",
      "type": "error"
    },
    {
      "anonymous": false,
      "inputs": [
        {
          "indexed": true,
          "internalType": "address",
          "name": "player",
          "type": "address"
        },
        {
          "indexed": true,
          "internalType": "uint256",
          "name": "emblemId",
          "type": "uint256"
        },
        {
          "indexed": false,
          "internalType": "uint256",
          "name": "timestamp",
          "type": "uint256"
        }
      ],
      "name": "EmblemRedeemed",
      "type": "event"
    },
    {
      "anonymous": false,
      "inputs": [
        {
          "indexed": true,
          "internalType": "uint256",
          "name": "id",
          "type": "uint256"
        },
        {
          "indexed": true,
          "internalType": "address",
          "name": "player",
          "type": "address"
        },
        {
          "indexed": false,
          "internalType": "bytes32",
          "name": "resultHash",
          "type": "bytes32"
        },
        {
          "indexed": false,
          "internalType": "string",
          "name": "resultCID",
          "type": "string"
        },
        {
          "indexed": false,
          "internalType": "uint256",
          "name": "scorePublic",
          "type": "uint256"
        },
        {
          "indexed": false,
          "internalType": "uint256",
          "name": "timestamp",
          "type": "uint256"
        }
      ],
      "name": "OutcomeLogged",
      "type": "event"
    },
    {
      "anonymous": false,
      "inputs": [
        {
          "indexed": false,
          "internalType": "string",
          "name": "poolCID",
          "type": "string"
        },
        {
          "indexed": false,
          "internalType": "uint256",
          "name": "version",
          "type": "uint256"
        }
      ],
      "name": "QuestionPoolSet",
      "type": "event"
    },
    {
      "inputs": [],
      "name": "confidentialProtocolId",
      "outputs": [
        {
          "internalType": "uint256",
          "name": "",
          "type": "uint256"
        }
      ],
      "stateMutability": "view",
      "type": "function"
    },
    {
      "inputs": [
        {
          "internalType": "uint256",
          "name": "",
          "type": "uint256"
        },
        {
          "internalType": "address",
          "name": "",
          "type": "address"
        }
      ],
      "name": "emblemClaimed",
      "outputs": [
        {
          "internalType": "bool",
          "name": "",
          "type": "bool"
        }
      ],
      "stateMutability": "view",
      "type": "function"
    },
    {
      "inputs": [
        {
          "internalType": "externalEuint32",
          "name": "scoreExt",
          "type": "bytes32"
        },
        {
          "internalType": "bytes",
          "name": "inputProof",
          "type": "bytes"
        },
        {
          "internalType": "bytes32",
          "name": "resultHash",
          "type": "bytes32"
        },
        {
          "internalType": "string",
          "name": "resultCID",
          "type": "string"
        },
        {
          "internalType": "uint32",
          "name": "scorePublic",
          "type": "uint32"
        }
      ],
      "name": "logGameOutcome",
      "outputs": [
        {
          "internalType": "uint256",
          "name": "outcomeId",
          "type": "uint256"
        }
      ],
      "stateMutability": "nonpayable",
      "type": "function"
    },
    {
      "inputs": [],
      "name": "nextOutcomeId",
      "outputs": [
        {
          "internalType": "uint256",
          "name": "",
          "type": "uint256"
        }
      ],
      "stateMutability": "view",
      "type": "function"
    },
    {
      "inputs": [
        {
          "internalType": "address",
          "name": "",
          "type": "address"
        }
      ],
      "name": "playerStats",
      "outputs": [
        {
          "internalType": "uint256",
          "name": "numGames",
          "type": "uint256"
        },
        {
          "internalType": "uint256",
          "name": "totalPublicScore",
          "type": "uint256"
        },
        {
          "internalType": "uint256",
          "name": "maxSinglePublicScore",
          "type": "uint256"
        },
        {
          "internalType": "uint256",
          "name": "lastPlayedAt",
          "type": "uint256"
        }
      ],
      "stateMutability": "view",
      "type": "function"
    },
    {
      "inputs": [
        {
          "internalType": "uint256",
          "name": "id",
          "type": "uint256"
        }
      ],
      "name": "readEncryptedOutcome",
      "outputs": [
        {
          "internalType": "euint32",
          "name": "",
          "type": "bytes32"
        }
      ],
      "stateMutability": "view",
      "type": "function"
    },
    {
      "inputs": [
        {
          "internalType": "address",
          "name": "player",
          "type": "address"
        }
      ],
      "name": "readEncryptedTotal",
      "outputs": [
        {
          "internalType": "euint32",
          "name": "",
          "type": "bytes32"
        }
      ],
      "stateMutability": "view",
      "type": "function"
    },
    {
      "inputs": [],
      "name": "readMyEncryptedTotal",
      "outputs": [
        {
          "internalType": "euint32",
          "name": "",
          "type": "bytes32"
        }
      ],
      "stateMutability": "view",
      "type": "function"
    },
    {
      "inputs": [
        {
          "internalType": "address",
          "name": "player",
          "type": "address"
        }
      ],
      "name": "readPlayerMilestones",
      "outputs": [
        {
          "internalType": "uint256",
          "name": "numGames",
          "type": "uint256"
        },
        {
          "internalType": "uint256",
          "name": "totalPublicScore",
          "type": "uint256"
        },
        {
          "internalType": "uint256",
          "name": "maxSinglePublicScore",
          "type": "uint256"
        },
        {
          "internalType": "uint256",
          "name": "lastPlayedAt",
          "type": "uint256"
        }
      ],
      "stateMutability": "view",
      "type": "function"
    },
    {
      "inputs": [
        {
          "internalType": "uint256",
          "name": "emblemId",
          "type": "uint256"
        }
      ],
      "name": "redeemEmblem",
      "outputs": [],
      "stateMutability": "nonpayable",
      "type": "function"
    },
    {
      "inputs": [
        {
          "internalType": "string",
          "name": "poolCID",
          "type": "string"
        },
        {
          "internalType": "uint256",
          "name": "version",
          "type": "uint256"
        }
      ],
      "name": "setQuestionPoolMeta",
      "outputs": [],
      "stateMutability": "nonpayable",
      "type": "function"
    }
  ],
  "transactionHash": "0x20ebc0781dedeb6386df47e9042e724933a16bb9af99fd203d599200d4c46f8a",
  "args": [],
  "numDeployments": 1,
  "solcInputHash": "eb68d4511bd08f4d854bd8b4ced21f13",
  "bytecode": "0x608060405260015f55348015610013575f5ffd5b506100c861001f6100cd565b80517f9e7b61f58c47dc699ac88507c4f5bb9f121c03808c5676a8078fe583e464970080546001600160a01b03199081166001600160a01b039384161790915560208301517f9e7b61f58c47dc699ac88507c4f5bb9f121c03808c5676a8078fe583e46497018054831691841691909117905560408301517f9e7b61f58c47dc699ac88507c4f5bb9f121c03808c5676a8078fe583e46497028054909216921691909117905550565b61023c565b604080516060810182525f808252602082018190529181019190915246600103610126575060408051606080820183525f8083526020808401829052928401819052835191820184528082529181018290529182015290565b4662aa36a7036101a5575060408051606080820183525f8083526020808401829052928401528251908101835273f0ffdc93b7e186bc2f8cb3daa75d86d1930a433d81527392c920834ec8941d2c77d188936e1f7a6f49c1279181019190915273be0e383937d564d7ff0bc3b46c51f0bf8d5c311a9181019190915290565b46617a6903610223575060408051606080820183525f808352602080840182905292840152825190810183527350157cffd6bbfa2dece204a89ec419c23ef5755d815273e3a9105a3a932253a70f126eb1e3b589c643dd249181019190915273be0e383937d564d7ff0bc3b46c51f0bf8d5c311a9181019190915290565b6040516373cac13b60e01b815260040160405180910390fd5b610d67806102495f395ff3fe608060405234801561000f575f5ffd5b50600436106100c4575f3560e01c80636c297dad1161007d578063cdafbbb611610058578063cdafbbb614610221578063d8323c5d14610257578063eee0fcdb1461026b575f5ffd5b80636c297dad146101e7578063744203c7146101fa5780638927b03014610219575f5ffd5b80630ae2cbd1116100ad5780630ae2cbd11461011f578063252241651461013257806358f4e27d14610168575f5ffd5b80630435c9ee146100c857806305dec3be146100dd575b5f5ffd5b6100db6100d6366004610a9d565b610273565b005b61010a6100eb366004610b00565b600460209081525f928352604080842090915290825290205460ff1681565b60405190151581526020015b60405180910390f35b6100db61012d366004610b2a565b6102b3565b61015a610140366004610b41565b6001600160a01b03165f9081526001602052604090205490565b604051908152602001610116565b6101c7610176366004610b41565b6001600160a01b03165f908152600360208181526040928390208351608081018552815480825260018301549382018490526002830154958201869052919093015460609093018390529390929190565b604080519485526020850193909352918301526060820152608001610116565b61015a6101f5366004610b5a565b6104fb565b61015a610208366004610b2a565b5f9081526002602052604090205490565b61015a610659565b6101c761022f366004610b41565b600360208190525f918252604090912080546001820154600283015492909301549092919084565b335f9081526001602052604090205461015a565b61015a5f5481565b7f9f4d9cec33dc6348869ba0e412772f419cdc00cc7d9d2003701ede45574d437b8383836040516102a693929190610c1f565b60405180910390a1505050565b5f81815260046020908152604080832033845290915290205460ff16156103215760405162461bcd60e51b815260206004820152600f60248201527f416c726561647920636c61696d6564000000000000000000000000000000000060448201526064015b60405180910390fd5b335f908152600360208181526040808420815160808101835281548152600180830154948201949094526002820154928101929092529092015460608301529091908390036103765750805160011115610451565b8260020361038e57600a826020015110159050610451565b826003036103a6576014826040015110159050610451565b826004036103d95781516003118015906103d2575042826060015162093a806103cf9190610c56565b10155b9050610451565b826005036103f557428260600151620151806103cf9190610c56565b8260060361040957508051600a1115610451565b60405162461bcd60e51b815260206004820152600e60248201527f556e6b6e6f776e20656d626c656d0000000000000000000000000000000000006044820152606401610318565b8061049e5760405162461bcd60e51b815260206004820152601260248201527f436f6e646974696f6e73206e6f74206d657400000000000000000000000000006044820152606401610318565b5f8381526004602090815260408083203380855290835292819020805460ff19166001179055514281528592917ff0320954f16c205a85a831608134f4fa4a5eb0a832ce9d7c7a21db4a56b1ca8d910160405180910390a3505050565b5f5f61053c8989898080601f0160208091040260200160405190810160405280939291908181526020018383808284375f9201919091525061066792505050565b335f90815260016020526040812054919250610558828461067d565b335f9081526001602052604090208190559050610574816106ab565b5061057f81336106ba565b50610589836106ab565b5061059483336106ba565b505f805490806105a383610c69565b909155505f81815260026020818152604080842088905533845260039091529091208054600190810182558101805463ffffffff8a16908101909155918101549296509110156105fa5763ffffffff861660028201555b426003909101819055604051339186917fe4304d1d049c5a16d06f6742ecd11766d8e5cc92605e9e96fd9150127140bfc491610643918d918d918d9163ffffffff8e1691610c81565b60405180910390a3505050979650505050505050565b5f6106626106cc565b905090565b5f61067483836004610700565b90505b92915050565b5f8261068f5761068c5f610820565b92505b816106a05761069d5f610820565b91505b61067483835f610832565b5f6106b68230610912565b5090565b5f6106c58383610912565b5090919050565b5f466001036106db5750600190565b4662aa36a7036106ec575061271190565b46617a69036106fb57505f1990565b505f90565b7f9e7b61f58c47dc699ac88507c4f5bb9f121c03808c5676a8078fe583e46497015460405163045fc19560e11b81525f917f9e7b61f58c47dc699ac88507c4f5bb9f121c03808c5676a8078fe583e4649700916001600160a01b03909116906308bf832a90610779908890339089908990600401610cce565b6020604051808303815f875af1158015610795573d5f5f3e3d5ffd5b505050506040513d601f19601f820116820180604052508101906107b99190610d28565b8154604051630f8e573b60e21b8152600481018390523360248201529193506001600160a01b031690633e395cec906044015f604051808303815f87803b158015610802575f5ffd5b505af1158015610814573d5f5f3e3d5ffd5b50505050509392505050565b5f6106778263ffffffff16600461099b565b5f5f82156108455750600160f81b610848565b505f5b5f7f9e7b61f58c47dc699ac88507c4f5bb9f121c03808c5676a8078fe583e4649700600181015460405163022f65e760e31b815260048101899052602481018890527fff00000000000000000000000000000000000000000000000000000000000000851660448201529192506001600160a01b03169063117b2f38906064016020604051808303815f875af11580156108e4573d5f5f3e3d5ffd5b505050506040513d601f19601f820116820180604052508101906109089190610d28565b9695505050505050565b5f7f9e7b61f58c47dc699ac88507c4f5bb9f121c03808c5676a8078fe583e46497008054604051635ca4b5b160e11b8152600481018690526001600160a01b03858116602483015292935091169063b9496b62906044015f604051808303815f87803b158015610980575f5ffd5b505af1158015610992573d5f5f3e3d5ffd5b50505050505050565b7f9e7b61f58c47dc699ac88507c4f5bb9f121c03808c5676a8078fe583e464970154604051639cd07acb60e01b81525f917f9e7b61f58c47dc699ac88507c4f5bb9f121c03808c5676a8078fe583e4649700916001600160a01b0390911690639cd07acb90610a109087908790600401610d3f565b6020604051808303815f875af1158015610a2c573d5f5f3e3d5ffd5b505050506040513d601f19601f82011682018060405250810190610a509190610d28565b949350505050565b5f5f83601f840112610a68575f5ffd5b50813567ffffffffffffffff811115610a7f575f5ffd5b602083019150836020828501011115610a96575f5ffd5b9250929050565b5f5f5f60408486031215610aaf575f5ffd5b833567ffffffffffffffff811115610ac5575f5ffd5b610ad186828701610a58565b909790965060209590950135949350505050565b80356001600160a01b0381168114610afb575f5ffd5b919050565b5f5f60408385031215610b11575f5ffd5b82359150610b2160208401610ae5565b90509250929050565b5f60208284031215610b3a575f5ffd5b5035919050565b5f60208284031215610b51575f5ffd5b61067482610ae5565b5f5f5f5f5f5f5f60a0888a031215610b70575f5ffd5b87359650602088013567ffffffffffffffff811115610b8d575f5ffd5b610b998a828b01610a58565b90975095505060408801359350606088013567ffffffffffffffff811115610bbf575f5ffd5b610bcb8a828b01610a58565b909450925050608088013563ffffffff81168114610be7575f5ffd5b8091505092959891949750929550565b81835281816020850137505f828201602090810191909152601f909101601f19169091010190565b604081525f610c32604083018587610bf7565b9050826020830152949350505050565b634e487b7160e01b5f52601160045260245ffd5b8082018082111561067757610677610c42565b5f60018201610c7a57610c7a610c42565b5060010190565b858152608060208201525f610c9a608083018688610bf7565b604083019490945250606001529392505050565b60548110610cca57634e487b7160e01b5f52602160045260245ffd5b9052565b8481526001600160a01b0384166020820152608060408201525f8351806080840152806020860160a085015e5f60a0828501015260a0601f19601f830116840101915050610d1f6060830184610cae565b95945050505050565b5f60208284031215610d38575f5ffd5b5051919050565b82815260408101610d536020830184610cae565b939250505056fea164736f6c634300081b000a",
  "devdoc": {
    "kind": "dev",
    "methods": {
      "logGameOutcome(bytes32,bytes,bytes32,string,uint32)": {
        "params": {
          "inputProof": "Input proof for `scoreExt`",
          "resultCID": "IPFS CID (can be encrypted off-chain if player prefers privacy)",
          "resultHash": "keccak256(JSON) of the full result payload uploaded to IPFS",
          "scoreExt": "Encrypted score (externalEuint32)",
          "scorePublic": "Optional clear score for public leaderboard; use 0 to keep it private"
        },
        "returns": {
          "outcomeId": "Sequential identifier of the stored outcome"
        }
      },
      "readEncryptedTotal(address)": {
        "details": "The returned value is an FHE handle; decrypt via FHEVM (mock or relayer)."
      },
      "setQuestionPoolMeta(string,uint256)": {
        "details": "For MVP, keep it open; in production wire to a multisig/ACL."
      }
    },
    "title": "NebulaAtlasFHE",
    "version": 1
  },
  "userdoc": {
    "errors": {
      "ZamaProtocolUnsupported()": [
        {
          "notice": "Returned if the Zama protocol is not supported on the current chain"
        }
      ]
    },
    "kind": "user",
    "methods": {
      "logGameOutcome(bytes32,bytes,bytes32,string,uint32)": {
        "notice": "Log a single game outcome with an encrypted score and optional public score."
      },
      "readEncryptedOutcome(uint256)": {
        "notice": "Returns the encrypted score for a specific outcome id."
      },
      "readEncryptedTotal(address)": {
        "notice": "Returns the encrypted total score of an address."
      },
      "readMyEncryptedTotal()": {
        "notice": "Convenience getter for the sender's encrypted total score."
      },
      "readPlayerMilestones(address)": {
        "notice": "Return player public stats used by achievements."
      },
      "redeemEmblem(uint256)": {
        "notice": "Redeem emblem when conditions are met. 1 First Try            numGames >= 1 2 Score 10 Total       totalPublicScore >= 10 3 High Score 20        maxSinglePublicScore >= 20 4 Active (7d >= 3)     numGames >= 3 && lastPlayedAt within 7 days 5 Daily                 lastPlayedAt within 1 day 6 Veteran              numGames >= 10"
      },
      "setQuestionPoolMeta(string,uint256)": {
        "notice": "Admin-only update of question pool CID and version."
      }
    },
    "notice": "FHE-enabled score aggregation and result indexing for the Nebula Atlas game.         Renamed methods vs GeoChainFHE to avoid collision while keeping same behavior.",
    "version": 1
  },
  "storageLayout": {
    "storage": [
      {
        "astId": 39227,
        "contract": "contracts/NebulaAtlasFHE.sol:NebulaAtlasFHE",
        "label": "nextOutcomeId",
        "offset": 0,
        "slot": "0",
        "type": "t_uint256"
      },
      {
        "astId": 39232,
        "contract": "contracts/NebulaAtlasFHE.sol:NebulaAtlasFHE",
        "label": "_encryptedTotalByPlayer",
        "offset": 0,
        "slot": "1",
        "type": "t_mapping(t_address,t_userDefinedValueType(euint32)39649)"
      },
      {
        "astId": 39237,
        "contract": "contracts/NebulaAtlasFHE.sol:NebulaAtlasFHE",
        "label": "_encryptedScoreByOutcomeId",
        "offset": 0,
        "slot": "2",
        "type": "t_mapping(t_uint256,t_userDefinedValueType(euint32)39649)"
      },
      {
        "astId": 39242,
        "contract": "contracts/NebulaAtlasFHE.sol:NebulaAtlasFHE",
        "label": "playerStats",
        "offset": 0,
        "slot": "3",
        "type": "t_mapping(t_address,t_struct(PlayerStats)39191_storage)"
      },
      {
        "astId": 39248,
        "contract": "contracts/NebulaAtlasFHE.sol:NebulaAtlasFHE",
        "label": "emblemClaimed",
        "offset": 0,
        "slot": "4",
        "type": "t_mapping(t_uint256,t_mapping(t_address,t_bool))"
      }
    ],
    "types": {
      "t_address": {
        "encoding": "inplace",
        "label": "address",
        "numberOfBytes": "20"
      },
      "t_bool": {
        "encoding": "inplace",
        "label": "bool",
        "numberOfBytes": "1"
      },
      "t_mapping(t_address,t_bool)": {
        "encoding": "mapping",
        "key": "t_address",
        "label": "mapping(address => bool)",
        "numberOfBytes": "32",
        "value": "t_bool"
      },
      "t_mapping(t_address,t_struct(PlayerStats)39191_storage)": {
        "encoding": "mapping",
        "key": "t_address",
        "label": "mapping(address => struct NebulaAtlasFHE.PlayerStats)",
        "numberOfBytes": "32",
        "value": "t_struct(PlayerStats)39191_storage"
      },
      "t_mapping(t_address,t_userDefinedValueType(euint32)39649)": {
        "encoding": "mapping",
        "key": "t_address",
        "label": "mapping(address => euint32)",
        "numberOfBytes": "32",
        "value": "t_userDefinedValueType(euint32)39649"
      },
      "t_mapping(t_uint256,t_mapping(t_address,t_bool))": {
        "encoding": "mapping",
        "key": "t_uint256",
        "label": "mapping(uint256 => mapping(address => bool))",
        "numberOfBytes": "32",
        "value": "t_mapping(t_address,t_bool)"
      },
      "t_mapping(t_uint256,t_userDefinedValueType(euint32)39649)": {
        "encoding": "mapping",
        "key": "t_uint256",
        "label": "mapping(uint256 => euint32)",
        "numberOfBytes": "32",
        "value": "t_userDefinedValueType(euint32)39649"
      },
      "t_struct(PlayerStats)39191_storage": {
        "encoding": "inplace",
        "label": "struct NebulaAtlasFHE.PlayerStats",
        "members": [
          {
            "astId": 39184,
            "contract": "contracts/NebulaAtlasFHE.sol:NebulaAtlasFHE",
            "label": "numGames",
            "offset": 0,
            "slot": "0",
            "type": "t_uint256"
          },
          {
            "astId": 39186,
            "contract": "contracts/NebulaAtlasFHE.sol:NebulaAtlasFHE",
            "label": "totalPublicScore",
            "offset": 0,
            "slot": "1",
            "type": "t_uint256"
          },
          {
            "astId": 39188,
            "contract": "contracts/NebulaAtlasFHE.sol:NebulaAtlasFHE",
            "label": "maxSinglePublicScore",
            "offset": 0,
            "slot": "2",
            "type": "t_uint256"
          },
          {
            "astId": 39190,
            "contract": "contracts/NebulaAtlasFHE.sol:NebulaAtlasFHE",
            "label": "lastPlayedAt",
            "offset": 0,
            "slot": "3",
            "type": "t_uint256"
          }
        ],
        "numberOfBytes": "128"
      },
      "t_uint256": {
        "encoding": "inplace",
        "label": "uint256",
        "numberOfBytes": "32"
      },
      "t_userDefinedValueType(euint32)39649": {
        "encoding": "inplace",
        "label": "euint32",
        "numberOfBytes": "32"
      }
    }
  }
}